:020000040000FA
:1010000002EF08F0818E05EF08F02FEF17F0FF00D8
:102DD000D59E1200E8EC16F012008490000E9D6E55
:102DE000000E9E6E1200FC0E366E000E356E350E15
:102DF000336E000E346EC3EC17F01200000E596EE5
:102E0000000E586E000ED46E000ED36ED588D5908D
:102E1000D592D594D596D6501F0B4009D66ED6883C
:102E2000D650F00B0809D66ED58E12000004021998
:102E30000506071901080319191919191E000104BB
:102E400060EA83205270102705190520052005200F
:102E50001900191005107142520314004B102C0E6A
:102E6000F66E2E0EF76E000EF86E00EE01F010EE0C
:102E700032F00900F5CFEEFFE550E150FAE100EE47
:102E800060F0840EEE6AE806FDE15B6A5A6A596AF0
:102E9000586A000EF86E0001FCEF19F0010E9C6EEE
:102EA000150E9B6E000E9F6E9F989F869F929F901F
:102EB000170E0E01B56F090EFD6F9E9E9E9C9E9A89
:102EC0009E989E969E849D9E9D9C9D9A9D889D9673
:102ED000849089900F01208F9E8A9D8E1200800E13
:102EE000356E000EF86E3450F76E33C0F6FF89EF82
:102EF00017F00900F528D8B480EF17F082EF17F02B
:102F000089EF17F0000E97EF17F097EF17F089EFA2
:102F100017F035063528D8A490EF17F092EF17F088
:102F200079EF17F094EF17F0010E97EF17F01200FA
:102F30000E01CDAB9EEF17F0A0EF17F0BFEF17F02B
:102F40009DCF36F033C0D9FF34C0DAFF99CFDFFF11
:102F500036C035F0060E3516D8B4B1EF17F0B3EF22
:102F600017F0BAEF17F09D989D88020EC2EF17F088
:102F7000C2EF17F0010EC2EF17F0C2EF17F0000E0C
:102F8000C2EF17F01200848020EE01F03350D926F2
:102F90003450DA22DF509A6E00F000F0D0EF17F0D4
:102FA0000E01CDA9D6EF17F0D8EF17F0D0EF17F03C
:102FB000DAEF17F033C0D9FF34C0DAFFDF509A6E72
:102FC00000F000F0E4EF17F09EA2E9EF17F0EBEF4E
:102FD00017F0E4EF17F0EDEF17F0300EE82EFED704
:102FE00084901200800E386E000EF86E3450F76E2A
:102FF00033C0F6FF13EF18F0090035C0D9FF36C013
:10300000DAFF354A362AF550DE18D8B40AEF18F040
:103010000CEF18F013EF18F0000E21EF18F021EF6D
:1030200018F013EF18F038063828D8A41AEF18F063
:103030001CEF18F0FCEF17F01EEF18F0010E21EF57
:1030400018F01200000E366E010E36642AEF18F0EA
:103050002CEF18F030EF18F056EF18F056EF18F08C
:10306000000EF86E3450F76E33C0F6FF400E332674
:10307000000E342281503F0B8009816E818481884B
:10308000F2CF35F0F29E550E826EAA0E826E8182CC
:1030900035C0F2FF8194362A010E366452EF18F0E3
:1030A00054EF18F030EF18F056EF18F0120033C05C
:1030B00037F034C038F035C039F036C03AF0050E7C
:1030C00067EF18F0D8903A32393238323732E82E7A
:1030D00062EF18F037C03BF038C03CF0D3CF3DF082
:1030E0003E6AD450386E376A37503D1238503E121F
:1030F0003B503D5C3C503E58D8B081EF18F083EF18
:1031000018F08EEF18F058503D5C59503E58D8B02A
:103110008CEF18F08EEF18F099EF18F03DC058F0D2
:103120003EC059F0E8EC16F0010EA0EF18F0A0EF49
:1031300018F03DC058F03EC059F0000EA0EF18F056
:103140001200000E396E010E3964A9EF18F0ABEFD2
:1031500018F0AFEF18F0EEEF18F0EEEF18F0000EE9
:10316000F86E3450F76E33C0F6FF400E386EC4EF81
:1031700018F035C0D9FF36C0DAFFDF50F56E354A9A
:10318000362A0D00C4EF18F038063828D8A4CBEF43
:1031900018F0CDEF18F0B9EF18F00A0081503F0B8E
:1031A0008009816E81988184F2CF37F0F29E550EAE
:1031B000826EAA0E826E818237C0F2FF8194400E29
:1031C0003326000E3422392A010E3964EAEF18F052
:1031D000ECEF18F0AFEF18F0EEEF18F01200000E61
:1031E000386E84801FEF19F033C0D9FF34C0DAFF86
:1031F000DF50396E334A342A39C09AFF00F000F0AC
:1032000002EF19F00E01CDA908EF19F00AEF19F03D
:1032100002EF19F00CEF19F038503918376E3750AB
:10322000010DDF0EF324F66E3E0EF420F76E08005B
:10323000F5CF38F03506D8A036061FEF19F0355017
:103240003610D8A426EF19F028EF19F0F4EF18F093
:103250002AEF19F0870E9A6E00F000F030EF19F0A7
:103260009EA235EF19F037EF19F030EF19F039EF72
:1032700019F0300EE82EFED7849012003AC03EF0CE
:103280003BC03FF0070ED8903E363F36E82E43EF66
:1032900019F03EC040F03FC041F040C033F041C0A3
:1032A00034F022EC18F040C033F041C034F06FEC41
:1032B00017F00009D8A45FEF19F061EF19F069EF7A
:1032C00019F0000E3B6E010E3A6E93EF19F093EF7A
:1032D00019F040C033F041C034F03CC035F03DC07F
:1032E00036F0A1EC18F040C033F041C034F03CC0DF
:1032F00035F03DC036F0F2EC17F00009D8A483EFAA
:1033000019F085EF19F08DEF19F0000E3B6E020EEB
:103310003A6E93EF19F093EF19F0000E3B6E000E2A
:103320003A6E93EF19F01200000E336E000E0F018B
:103330005F6F60809CEF19F060B0A1EF19F0A3EF10
:1033400019F09CEF19F064CF5AF0400E5A60ABEFC1
:1033500019F0ADEF19F0B0EF19F03380BDEF19F0AF
:10336000BE0E5A64B6EF19F0B8EF19F0BDEF19F0C0
:103370003382BDEF19F0BDEF19F0010E0F015F6F41
:103380006080C3EF19F060B0C8EF19F0CAEF19F010
:10339000C3EF19F064CF5BF0400E5B60D2EF19F021
:1033A000D4EF19F0D7EF19F03384E4EF19F0BE0E23
:1033B0005B64DDEF19F0DFEF19F0E4EF19F033860D
:1033C000E4EF19F0E4EF19F03350D8B4EAEF19F054
:1033D000ECEF19F0F8EF19F03350010D010EF32462
:1033E000D96E000EF420DA6EDF50336EF8EF19F06C
:1033F0003350FBEF19F01200FC0E0F01106FE60EB8
:10340000186F2069030E116F180E196F000E216FCF
:103410001F0E576F000E586F000E606E000E596F32
:10342000000E5A6F000E5B6F540E5C6F000E5D6FE6
:10343000000E5E6F608E4EEC17F08EA222EF1AF037
:1034400024EF1AF02AEF1AF0000E546E040E536E99
:10345000C7EF1AF0000E546E030E536EC7EF1AF04A
:10346000C7EF1AF0C7EF1AF0C7EF1AF099EF1AF08A
:10347000F2EC1FF0C7EF1AF0000E366E100E356E2C
:1034800079EC1DF0C7EF1AF053C035F054C036F098
:1034900079EC1DF0C7EF1AF094EC19F04F6E4F5015
:1034A000556E566A55C035F056C036F079EC1DF0B1
:1034B000C7EF1AF0030E53185410D8A462EF1AF095
:1034C00064EF1AF077EF1AF08D504F6E506A4F1C70
:1034D000516E501C526E523452325132523452326A
:1034E0005132070E5114556E566A7DEF1AF0000ED8
:1034F000566E000E556E7DEF1AF055C035F056C071
:1035000036F079EC1DF0C7EF1AF0F3EC16F0DFECB3
:103510001AF0C7EF1AF0110E336E000E346E000E63
:10352000366E220E356EEFEC18F0C7EF1AF0C7EFCB
:103530001AF057500F0B4F6E506A5050000AD8B413
:10354000A4EF1AF038EF1AF04F50000AD8B43CEF4D
:103550001AF0010AD8B444EF1AF0030AD8B44CEFB9
:103560001AF0010AD8B45AEF1AF0080AD8B485EF55
:103570001AF0050AD8B48BEF1AF038EF1AF0C7EF3B
:103580001AF0F2EC1FF0C7EF1AF0C7EF1AF0570E5F
:10359000376E000E386EE9EC1BF0000AD8B4C7EFA6
:1035A0001AF0010AD8B499EF1AF0030AD8B4C1EF9F
:1035B0001AF0C7EF1AF0C7EF1AF005EF08F0FDECAC
:1035C0001FF0000E4D6EE5EF1AF04D50D8B4EBEF42
:1035D0001AF0EDEF1AF0D0EF1BF0EFEF1AF0800EBB
:1035E000336E1A0E346E060E356E000E366E57ECC4
:1035F00018F00009D8B4FFEF1AF001EF1BF066EFE6
:103600001BF0E8EC16F0000E4D6EE5EF1AF07CEFC3
:103610001BF066EF1BF07CEF1BF07CEF1BF04C50B7
:103620004E18446E4450010DDF0EF324F66E3E0E2C
:10363000F420F76E0800F5CF4CF04A2E4FEF1BF048
:10364000E8EC16F0000E4D6E4C50D8A42AEF1BF09B
:103650002CEF1BF049EF1BF000016051446E6151EB
:10366000486E44C049F048C03AF049C03BF0620E91
:103670003C6E000E3D6E3EEC19F03AC046F03BC089
:1036800047F046C035F047C036F079EC1DF07CEFCE
:103690001BF0F2EC1FF07CEF1BF07CEF1BF04B50AB
:1036A000010D600EF324D96E000EF420DA6E4EC0C8
:1036B000DFFF4B2A7CEF1BF07CEF1BF0E8EC16F0F1
:1036C000000E4D6E7CEF1BF07CEF1BF04E0E336E48
:1036D000000E346E98EC17F0000AD8B47CEF1BF0A3
:1036E000010AD8B40FEF1BF0030AD8B45EEF1BF049
:1036F0007CEF1BF07CEF1BF04D50D8A482EF1BF049
:1037000084EF1BF0EFEF1AF0E5EF1AF0E5EF1AF097
:10371000D0EF1BF0E5EF1AF0B2EF1BF0F2EC1FF068
:10372000E5EF1AF0000E4B6E4E50010DDF0EF32444
:10373000F66E3E0EF420F76E0800F5CF4CF0010E49
:103740004D6E830E4A6EFEEC16F0E5EF1AF0F3ECC8
:1037500016F0EAEC16F0EDEC16F0FF00E5EF1AF0CB
:10376000E5EF1AF04E500F0B446E456A4550000AC3
:10377000D8B4BDEF1BF08EEF1BF044500C0AD8B448
:1037800092EF1BF0010AD8B4A7EF1BF08EEF1BF0ED
:10379000E5EF1AF0F2EC1FF0E5EF1AF0E5EF1AF0A2
:1037A0004E0E376E000E386EE9EC1BF0000AD8B4EE
:1037B000E5EF1AF0010AD8B4B2EF1BF0030AD8B44F
:1037C000CAEF1BF0E5EF1AF0E5EF1AF0E5EF1AF09B
:1037D000120007EF1DF0EDEF1BF0000E78EF1DF06B
:1037E00078EF1DF0000E426E43B8F9EF1BF0FDEFCD
:1037F0001BF0396A392AFEEF1BF0396A43B603EF32
:103800001CF007EF1CF03A6A3A2A08EF1CF03A6AFB
:1038100043B20DEF1CF010EF1CF0010E11EF1CF085
:10382000000E3B6E43B017EF1CF01AEF1CF0010EB8
:103830001BEF1CF0000E3B1AD8A421EF1CF024EF64
:103840001CF0010E25EF1CF0000E3A183918421238
:1038500043BA2DEF1CF031EF1CF0396A392A32EFF0
:103860001CF0396A43B637EF1CF03BEF1CF03A6AA4
:103870003A2A3CEF1CF03A6A43B441EF1CF044EFA3
:103880001CF0010E45EF1CF0000E3B6E43B04BEFF9
:103890001CF04EEF1CF0010E4FEF1CF0000E3B1A17
:1038A000D8A455EF1CF058EF1CF0010E59EF1CF096
:1038B000000E3A1839183C6ED8903C34421243BC82
:1038C00064EF1CF068EF1CF0396A392A69EF1CF0CC
:1038D000396A43B66EEF1CF072EF1CF03A6A3A2A6E
:1038E00073EF1CF03A6A43B478EF1CF07BEF1CF0E6
:1038F000010E7CEF1CF0000E3B6E43B282EF1CF019
:1039000085EF1CF0010E86EF1CF0000E3B1AD8A4C8
:103910008CEF1CF08FEF1CF0010E90EF1CF0000EEE
:103920003A1839183C6ED8903C36D8903C34421244
:1039300043BE9DEF1CF0A1EF1CF0396A392AA2EFBB
:103940001CF0396A43BCA7EF1CF0ABEF1CF03A6ADD
:103950003A2AACEF1CF03A6A43BAB1EF1CF0B5EF6B
:103960001CF03B6A3B2AB6EF1CF03B6A43B8BBEF46
:103970001CF0BFEF1CF03C6A3C2AC0EF1CF03C6A14
:1039800043B6C5EF1CF0C9EF1CF03D6A3D2ACAEFF3
:103990001CF03D6A43B4CFEF1CF0D3EF1CF03E6A3D
:1039A0003E2AD4EF1CF03E6A43B2D9EF1CF0DCEFA4
:1039B0001CF0010EDDEF1CF0000E3F6E43B0E3EF94
:1039C0001CF0E6EF1CF0010EE7EF1CF0000E3F1AB2
:1039D000D8A4EDEF1CF0F0EF1CF0010EF1EF1CF09D
:1039E000000E3E183D183C183B183A183918406E26
:1039F000D8904036D8904036D890403442121BEFD1
:103A00001DF0070E426E1BEF1DF01BEF1DF0430E65
:103A1000336E000E346E98EC17F0000AD8B4EDEF58
:103A20001BF0010AD8B4F2EF1BF0030AD8B401EF7F
:103A30001DF0EDEF1BF0010E416E3BEF1DF062EF4C
:103A40001DF0000E416E62EF1DF062EF1DF062EF9F
:103A50001DF062EF1DF0437062EF1DF062EF1DF08C
:103A6000437262EF1DF0437462EF1DF0437662EF24
:103A70001DF062EF1DF04250000AD8B462EF1DF055
:103A8000080AD8B462EF1DF0010AD8B462EF1DF045
:103A9000030AD8B462EF1DF0010AD8B42BEF1DF071
:103AA000070AD8B462EF1DF0010AD8B430EF1DF058
:103AB000030AD8B433EF1DF0010AD8B436EF1DF075
:103AC00021EF1DF04150D8B468EF1DF06AEF1DF0F2
:103AD00075EF1DF037C0D9FF38C0DAFF43C0DFFFF4
:103AE000010E78EF1DF078EF1DF0020E78EF1DF05B
:103AF0001200FF0E376E030E386E35C039F036C037
:103B00003AF03750391638503A16000E3910416ED7
:103B1000040E3A10426E42964298429A429C42B437
:103B200094EF1DF098EF1DF0376A372A99EF1DF0DA
:103B3000376A42B09EEF1DF0A2EF1DF0386A382AB6
:103B4000A3EF1DF0386A41BCA8EF1DF0ACEF1DF0EB
:103B5000396A392AADEF1DF0396A41B8B2EF1DF06C
:103B6000B6EF1DF03A6A3A2AB7EF1DF03A6A41B64D
:103B7000BCEF1DF0C0EF1DF03B6A3B2AC1EF1DF00A
:103B80003B6A41B2C6EF1DF0C9EF1DF0010ECAEF4E
:103B90001DF0000E3C6E41B0D0EF1DF0D3EF1DF0D4
:103BA000010ED4EF1DF0000E3C1AD8A4DAEF1DF080
:103BB000DDEF1DF0010EDEEF1DF0000E3B183A1890
:103BC0003918381837183D6E42303E6E3E323E305E
:103BD0000F0B3E6E3D503E123E363E363E36425054
:103BE0003E18870B3E18426E42B4F9EF1DF0FDEF10
:103BF0001DF0376A372AFEEF1DF0376A42B203EF35
:103C00001EF007EF1EF0386A382A08EF1EF0386AF7
:103C100041BC0DEF1EF011EF1EF0396A392A12EF88
:103C20001EF0396A41BA17EF1EF01BEF1EF03A6A18
:103C30003A2A1CEF1EF03A6A41B621EF1EF025EF3A
:103C40001EF03B6A3B2A26EF1EF03B6A41B42BEF85
:103C50001EF02EEF1EF0010E2FEF1EF0000E3C6E38
:103C600041B035EF1EF038EF1EF0010E39EF1EF0B7
:103C7000000E3C1AD8A43FEF1EF042EF1EF0010EDA
:103C800043EF1EF0000E3B183A1839183818371851
:103C90003D6ED8903D343E6E42303F6E3F323F30F5
:103CA0000F0B3F6E3E503F123F363F363F3642507D
:103CB0003F18870B3F18426E42B461EF1EF065EF6C
:103CC0001EF0376A372A66EF1EF0376A42B26BEF92
:103CD0001EF06FEF1EF0386A382A70EF1EF0386A57
:103CE00042B075EF1EF079EF1EF0396A392A7AEF8B
:103CF0001EF0396A41BE7FEF1EF083EF1EF03A6A74
:103D00003A2A84EF1EF03A6A41B689EF1EF08DEF31
:103D10001EF03B6A3B2A8EEF1EF03B6A41B493EFE4
:103D20001EF096EF1EF0010E97EF1EF0000E3C6E97
:103D300041B29DEF1EF0A0EF1EF0010EA1EF1EF0AC
:103D4000000E3C1AD8A4A7EF1EF0AAEF1EF0010E39
:103D5000ABEF1EF0000E3B183A1839183818371818
:103D60003D6ED8903D36D8903D3642303E6E3E3264
:103D70003E300F0B3E6E3D503E123E363E363E36D6
:103D800042503E18870B3E18426E42B4CAEF1EF0F6
:103D9000CEEF1EF0376A372ACFEF1EF0376A42B2F5
:103DA000D4EF1EF0D8EF1EF0386A382AD9EF1EF093
:103DB000386A42B0DEEF1EF0E2EF1EF0396A392AAF
:103DC000E3EF1EF0396A41BEE8EF1EF0ECEF1EF0A3
:103DD0003A6A3A2AEDEF1EF03A6A41BCF2EF1EF061
:103DE000F6EF1EF03B6A3B2AF7EF1EF03B6A41BA42
:103DF000FCEF1EF0FFEF1EF0010E00EF1FF0000EB3
:103E00003C6E41B806EF1FF009EF1FF0010E0AEFFC
:103E10001FF0000E3C1AD8A410EF1FF013EF1FF094
:103E2000010E14EF1FF0000E3B183A18391838181D
:103E300037183D6ED8903D36D8903D36D8903D36F7
:103E400042303E6E3E323E300F0B3E6E3D503E12D3
:103E50003E363E363E3642503E18870B3E18426E86
:103E6000429E000E406E0E0E406439EF1FF03BEF95
:103E70001FF03FEF1FF068EF1FF068EF1FF040C02A
:103E800037F041C038F042C039F0372A4BEF1FF00D
:103E9000D89039323832372E48EF1FF0010E3816DD
:103EA00042344234010B3A6E38503A1A3A323A32BE
:103EB00042503A187F0B3A18426E402A0E0E406468
:103EC00064EF1FF066EF1FF03FEF1FF068EF1FF089
:103ED000410E336E000E346EC3EC17F0120000007A
:103EE0005EBCE2613FDD83C29C7E20A3FD1F419D3D
:103EF000C3217FFCA2401E5F01E3BD3E6082DC2344
:103F00007D9FC1421CFEA0E1BF5D0380DE3C62BE1E
:103F1000E0025CDF81633D7C22C09E1D43A1FF4621
:103F200018FAA427799BC584DA3866E5BB5907DB04
:103F3000856739BAE406581947A5FB7826C49A65FF
:103F40003BD987045AB8E6A7F91B45C6987A24F8E6
:103F5000A6441A99C7257B3A6486D85B05E7B98CD5
:103F6000D2306EEDB3510F4E10F2AC2F7193CD11D4
:103F70004FADF3702ECC92D38D6F31B2EC0E50AFAB
:103F8000F1134DCE90722C6D33D18F0C52B0EE32B6
:103F90006C8ED0530DEFB1F0AE4C1291CF2D73CA91
:103FA000947628ABF517490856B4EA6937D58B578C
:103FB00009EBB536688AD495CB2977F4AA4816E977
:103FC000B7550B88D6346A2B7597C94A14F6A8746E
:103FD0002AC896154BA9F7B6E80A54D7896B35005D
:103FE00010000000000E366E000E356E350E336E7A
:103FF000000E346EC3EC17F01200E8EC16F012005D
:00000001FF
